:020000021000EC
:10F0000000400020212C0200012C0200012C0200F3
:10F0100000000000000000000000000000000000F0
:10F02000000000000000000000000000012C0200B1
:10F030000000000000000000012C0200012C020072
:10F04000012C0200012C0200012C0200012C020004
:10F05000012C020000000000012C0200012C020023
:10F06000012C0200012C0200012C0200012C0200E4
:10F07000012C0200012C0200012C0200012C0200D4
:10F08000012C0200012C0200012C0200012C0200C4
:10F09000012C020051250200ED1A0200012C020091
:10F0A000012C0200012C0200000000000000000002
:10F0B0000000000000000000000000000000000050
:10F0C00010B5064C2378002B07D1054B002B02D03E
:10F0D000044800E000BF0123237010BD542100202C
:10F0E00000000000A456020008B5084B002B03D016
:10F0F0000748084900E000BF07480368002B03D019
:10F10000064B002B00D0984708BDC0460000000009
:10F11000A456020058210020A4560200000000005E
:10F12000054B1A68002A01D1044A1A601A6810189F
:10F130001860101C7047C04670210020282800204D
:10F1400001204042704780239B0100204B607047A4
:10F1500001207047002070470020704770B50E1CDA
:10F16000151C0C1CA31BAB4204DA207801F090FDA7
:10F170000134F7E7E843C017284070BD011C08B50B
:10F18000014804F0C9FFFEE7004F0200704701206C
:10F190004042704708B50548054B836000F0A2F86F
:10F1A0000448012100F06EFF08BDC046E4210020A4
:10F1B000194F0200D421002010B50D4C88B0201C3E
:10F1C000002100F09DFF00280DD001A8211C00F0B7
:10F1D000AAFF0121074800F0E3F801A801F064F854
:10F1E00001A801F01BF8044803F032FA08B010BD82
:10F1F000D4210020E4210020881300007047000083
:10F2000010B50178094C00290BD0094800F0EDF841
:10F21000011C201C00F0CCF80021064800F070FF13
:10F2200002E0201C00F0BCF810BDC046E421002024
:10F2300080210020D421002038B50A4C0A49201C26
:10F2400001F0AEFB211C094800F0C2F8084D211C5A
:10F25000281C00F003FF281C0649074A03F03CFD68
:10F2600038BDC046742100201422002080210020D7
:10F27000D42100207700020000200020144BF0B5BC
:10F2800001261E60134B85B00360134B00254360BD
:10F29000124B1027041C836005733A1C6846104902
:10F2A00004F08DFE201C3A1C69460D3004F087FEE8
:10F2B000E31CC522E5832584DA77502363620423A7
:10F2C000A362231C2C33201C1E7005B0F0BDC04669
:10F2D00054230020184F0200344F02003C4F02001C
:10F2E000244F0200204B10B51B78041C002B12D1B8
:10F2F0001E4B1B78002B0ED001F014FC96239B01B3
:10F30000984208DD1A4C2078002803D0013401F01F
:10F31000BFFCF8E7FEE72268164B211C1A60626802
:10F32000154B0D311A60A268144B15481A60227BE8
:10F33000144B1A70102204F042FEE28B124B1A801A
:10F34000228C124B1A80E31CDA7F114B1A70626A0E
:10F35000104B1A60A26A104B2C341A7022780F4B93
:10F360001A7001F0E1FD10BDA5220020A4220020AA
:10F37000434F0200E023002008200020242000202A
:10F380000F20002074230020E42300206C230020A1
:10F390000E20002004200020202000201F2000201C
:10F3A00007B5684607300170012101F085FF0EBDE9
:10F3B00007B5019101A8042101F07EFF0EBD0000F8
:10F3C00008B50248FFF75AFF08BDC046E4210020F7
:10F3D0000165704710B5041C006D03681B689847F1
:10F3E000206D03685B68984710BD73B50223C37333
:10F3F000041C006D251C026800230F3500939668DD
:10F40000291C0122B047002801D0002013E0206D04
:10F41000291C03684022DE68FA239B00B0470028BD
:10F42000F3DBE07B237C00021843637C000218437B
:10F43000A37C0002184376BDF7B501231422C273E2
:10F44000037442748374041C006D00250368261C39
:10F450000F3600959F68311C04222B1CB847A84228
:10F460000AD1206D311C03684022DC68FA239B001E
:10F47000A047C5172D1AED0F281CFEBDF0B585B0AD
:10F4800003930AAB1F884A23C37301230374417497
:10F49000041C006D029200230268261C00930F36A4
:10F4A0009568311C0322A847051E01D000201AE0F0
:10F4B000206D311C0368DA683B1C94464022E0470B
:10F4C0000028F3DBE37B012BF0D1237D039A13703B
:10F4D000237DAB4206D963195B7D029A53550135F2
:10F4E000EDB2F5E7012005B0F0BD03207F2900D97A
:10F4F0000F20014048424841C0B270474B1C0320D6
:10F500007F2900D90F20034058425841C0B27047AC
:10F51000F0B585B00293051C0AAB1B780835041CB6
:10F52000161C0F1C06220B99281C039304F047FDA0
:10F53000321C391C201C04F042FD03994023E37364
:10F54000012323744B424B416122D31A6374029B03
:10F55000201CA3740622E6711330291C04F02FFD31
:10F56000E279231C191BC9B2914203D219780133E5
:10F570001976F7E7206D00250368261C0F360A323E
:10F5800000959F68D2B2311C2B1CB847A8420BD102
:10F59000206D311C03684022DD68FA239B00A847D8
:10F5A000E57B6B425D41EDB2281C05B0F0BDF0B5C6
:10F5B0003023402501274374C57307748174041CEC
:10F5C000006D85B003920023026800939168261CA9
:10F5D0000F368C460422311CE047002801D0002061
:10F5E00012E0206D311C0368DA68FA2394469B0010
:10F5F0002A1CE047E37B002BF1D1211C103103983A
:10F60000102204F0DCFC381C05B0F0BDF0B585B06C
:10F61000041C03923F2901D9002026E03023402515
:10F6200001274374C57307748174006D0023026859
:10F6300000939168261C0F368C460422311CE0474B
:10F640000028E9D1206D311C0368DA68FA2394465A
:10F650009B002A1CE047E37B002BDDD1211C1031ED
:10F660000398042204F0ABFC381C05B0F0BD016027
:10F6700070477047481DFE2900DCC81C030705D0F1
:10F68000C3171B0F1818001101300001704700004C
:10F6900038B500200B5C0D18002B0DD0032B10D0BB
:10F6A000084C0949201C03F063F82978201C10221B
:10F6B00003F0F2F8022003E001301028EAD1012023
:10F6C000404238BDA82200201550020070B50C1C25
:10F6D000161C1D1CFFF7DCFF002802DB235C032B3C
:10F6E00005D00B480B4903F058F800200EE0241811
:10F6F0006378FF2B06D1A378E2781B0213433360B3
:10F70000043001E0336002302860012070BDC04643
:10F71000A822002022500200F0B597B002AF3E1C94
:10F72000283678610C1CBA6159490622301C3B61AD
:10F7300004F045FC39690023C9B2B9603B627B62C1
:10F74000009301962068B969BA680423FFF7E0FEC8
:10F75000002821D03A1C206804213032FFF727FF0F
:10F7600000280ED0391C3A1C3B1C201C303124329E
:10F770002033FFF7ABFF00281FD1381C403045492C
:10F7800011E0454C4549201C02F0D5FF201C042106
:10F790000A2203F069F803E03F48414902F0FDFF07
:10F7A000381C4049403003F066F93B1C7869B96960
:10F7B0003A69403300F0DCFC62E0201C796AFFF714
:10F7C00059FF031C0733DB08DB006A46D21A954653
:10F7D00002AB7860FB60FB610425FA69F968531A93
:10F7E0007A6893423ADA2068291CFFF77EFE0028E7
:10F7F00016D0002300933B1C283301932068B9697D
:10F80000BA682B1CFFF784FE002809D1224E264936
:10F81000301C02F090FF301C291C0A2203F024F84F
:10F82000E9B22068FA69FFF7C2FE002809D11A4E32
:10F830001E49301C02F07FFF301C291C0A2203F0F5
:10F8400013F86E1C2068311CFFF758FE002800D00A
:10F85000AE1CF969351C1031F961BEE7381C11493D
:10F86000403003F008F9F9683A6A8B1800937B6A14
:10F8700001933B1C7869B9693A69403300F0AEFCEA
:10F88000381C403003F0B0F87869BD4615B0F0BDC3
:10F89000E64F020046500200A82200204C50020011
:10F8A000755002006650020090500200B8500200ED
:10F8B00000230160036183607047704737B501AC76
:10F8C00000680421221CFFF7A1FE051E0FD023783B
:10F8D0000020FF2B16D16378FF2B13D1A378FF2BC9
:10F8E00010D1E078FF3845426841C0B20AE0064CCA
:10F8F0000649201C02F01FFF201C04210A2202F0EE
:10F90000CBFF281C3EBDC046A8220020CB510200E0
:10F9100037B501AD041C032100682A1CFFF776FEF1
:10F92000002802D0AB78DB00636037BD30B585B00E
:10F9300001AD041C042100682A1CFFF767FE0028A3
:10F9400014D02068052102AAFFF760FE00280DD020
:10F950002B78032B03D16B78A360022305E06B792E
:10F96000032B03D1AB79A3600723236105B030BD1E
:10F97000816802698B180133990702D09B08013313
:10F980009B00C36070470000F0B5ABB002AF3861B8
:10F99000081C0C1CFA60BB60FFF790FF061E14D019
:10F9A0004349444802F0F9FE381C43492C3003F027
:10F9B00062F83B1C3869F968BA682C3300F0D8FB50
:10F9C000381C2C3003F010F86EE0201CFFF7A0FF6D
:10F9D000201CFFF7ABFF201CFFF7CAFFA16800291E
:10F9E0001AD13C1C2C34201C00F0ACF8201C00F078
:10F9F00072F9381C30491C3003F03DF800943B1C70
:10FA0000F968BA681C33386900F0CAFB381C1C302E
:10FA100002F0EAFF201C45E0E3686A460733DB0892
:10FA2000DB00D21A954602AB3B60331DDBB27B6133
:10FA30003B68B10079605A1820687969FFF7E6FDE4
:10FA4000051E0BD11B4E1D49301C02F074FE301CEC
:10FA500079690A2202F020FFA56008E02169A26806
:10FA60008B187968994202D201363B2EDDD1236989
:10FA70003A683D1C2C35D118281CA26800F0C6F845
:10FA8000381C0D491C3002F0F6FF00953B1CF9684C
:10FA9000BA681C33386900F083FB381C1C3002F054
:10FAA000A3FF281C00F079F83869BD4629B0F0BDE5
:10FAB000E4510200A822002003520200B8500200C4
:10FAC000F8B5071C0E1C0025184CB54216D27B5DFC
:10FAD0000F2B03D8201C164902F04AFE795D201C2A
:10FAE000102202F0D5FE012E06DD731E9D4203D0CA
:10FAF000201C104902F03CFE0135E5E7201C0E49B0
:10FB000002F036FE0025B5420BD2795D201C1F297C
:10FB100003D80A4902F02CFE01E002F02DFE013567
:10FB2000F1E7201C064902F04CFEF8BDA822002097
:10FB30001452020017520200165202004D520200E7
:10FB4000184F020070B5061C041C051C7036281CDA
:10FB50001C3500F017F9B542F9D10023201C2367AA
:10FB600070BDF8B5071C041C0E1C051C7037281C42
:10FB70001C3500F007F9BD42F9D1336F002523672A
:10FB8000236F9D4207D21C2169436018711800F051
:10FB900018F90135F4E7201CF8BD38B5041E08D06B
:10FBA000051C7035A54204D01C3D281C00F0F3F85C
:10FBB000F8E7201C38BD70B50024061C251C336FE7
:10FBC0009C4207D21C206043301800F038F9013401
:10FBD0002D18F4E7281C70BD036F10B5041C032B0F
:10FBE00009D81C204343E01800F0EBF8236F0120F4
:10FBF0000133236704E00348034902F0CEFD0020EF
:10FC000010BDC046A822002019520200F0B5071C02
:10FC10008FB0051C0C1C0592061C7037301C1C365E
:10FC200000F0B0F8BE42F9D100262E67059B9E4237
:10FC30004EDCA75D40233B4004933B07DB0F07A846
:10FC4000029300F09FF80721394007A800F007F958
:10FC5000A3195A780392FA0603D50236A35D0193DD
:10FC60000BE09978DA780906053612040A431B7905
:10FC7000A15D1B020A431A430192029A0027BA426D
:10FC800001D00136A75D0136A119039A07A800F03B
:10FC9000E8F8039B029AF618002A05D0A11907A8D4
:10FCA0003A1C00F006F9F619A119019A07A800F00C
:10FCB000ECF8019B281C07A9F618FFF78DFF049AA2
:10FCC00007A8002A02D100F066F8AFE700F063F859
:10FCD000281C0FB0F0BD38B5051C1C2002F0E2FF57
:10FCE000041C00F04FF8201C002100F0B8F8281C7C
:10FCF000211CFFF771FF002C05D0201C00F04BF8F1
:10FD0000201C02F0E3FF38BD38B5184D041C18491B
:10FD1000281C02F010FD216F0A22281C02F0C6FDEB
:10FD2000281C144902F007FD236F281C012B01D168
:10FD3000114900E0114902F01BFD201CFFF73BFFB9
:10FD40000A22011C281C02F08BFD281C0C4902F021
:10FD500024FD0025236F9D4206D21C2068432018F5
:10FD600000F0BCF80135F5E738BDC046A8220020F8
:10FD700054520200635202006C5202006B520200A5
:10FD80006F5202000023037043608360C36003610D
:10FD9000436183617047436810B5041C002B02D097
:10FDA000006904F0F3F8A368002B02D0606904F046
:10FDB000EDF8E368002B02D0A06904F0E7F8201CFE
:10FDC00010BD38B5041C0D1C884236D04368002B8A
:10FDD00002D0006904F0DAF8A368002B02D0606951
:10FDE00004F0D4F8E368002B02D0A06904F0CEF848
:10FDF0002B7868682370AB686060A360EB68E36091
:10FE0000002806D004F0B8F820612969626804F07F
:10FE1000D6F8A068002806D004F0AEF860616969E1
:10FE2000A26804F0CCF8E068002806D004F0A4F83A
:10FE3000A061A969E26804F0C2F8201C38BD82689C
:10FE400030B50323FF2A00DD0623C16840680C1C7F
:10FE5000651EAC4109181B198A18D01830BD0170F5
:10FE60007047436870B5041C0E1C151C002B02D093
:10FE7000006904F08BF8281C04F07EF8311C2A1C61
:10FE8000206104F09CF8656070BD836870B5041C47
:10FE90000E1C151C002B02D0406904F077F8281CBA
:10FEA00004F06AF8311C2A1C606104F088F8A5602F
:10FEB00070BDC36870B5041C0E1C151C002B02D04D
:10FEC000806904F063F8281C04F056F8311C2A1CE1
:10FED000A06104F074F8E56070BD000070B54B4C93
:10FEE000051C4B49201C02F058FC4A49201C02F01A
:10FEF00022FC29781022201C02F0CAFC464E201C4D
:10FF0000311C02F035FC287807281FD802F0ECFEDF
:10FF100004070C0F1215181B201C404901E0404932
:10FF2000201C02F03AFC14E0201C3E49F9E7201C9A
:10FF30003D49F6E7201C3D49F3E7201C3C49F0E72A
:10FF4000201C3C49EDE7201C3B49EAE7201C02F05D
:10FF500018FC3A49201C02F0EEFB10226968201CB4
:10FF600002F0A4FC311C201C02F002FC0A22696889
:10FF7000201C02F09FFC3249201C02F0DCFB102206
:10FF8000A968201C02F06CFC311C201C02F0F0FB64
:10FF9000201CA9680A2202F067FCEB68002B08D03D
:10FFA0002849201C02F0C7FB201CE968102202F03F
:10FFB00081FC2549201C02F0BEFB28696968FFF717
:10FFC0007FFD2249201C02F0B6FB6869A968FFF793
:10FFD00077FDEB68002B07D01D49201C02F0ABFB1E
:10FFE000A869E968FFF76CFD1A49201C02F0A3FB21
:10FFF000281CFFF724FF0A22011C201C02F030FC01
:020000022000DC
:10000000201C154902F0DDFB70BDC046A82200206F
:100010007652020084520200175202008F520200F0
:1000200095520200A0520200AB520200B8520200E8
:10003000C1520200C9520200D3520200DC52020037
:10004000EF52020005530200165302002053020033
:100050002D530200355302006F52020070B5041C8C
:1000600054200E1C02F01EFE311C051CFFF7B0F9D7
:100070002560201C70BD10B5041C006802F026FE2F
:10008000201C10BDF8B5061C00680C1CFFF7A2F977
:100090003068FFF7AAF9051E04D11548154902F08A
:1000A0004AFBFEE7002C1ED0114C1349201C02F025
:1000B00042FB1022290E201C02F006FC0F49201CD6
:1000C00002F039FBFF27290C0A223940201C02F0DC
:1000D000D5FB2E21201C02F04FFB290A3940201CA1
:1000E0000A2202F0F1FB3068FFF7A6F9F8BDC0461E
:1000F000A8220020445302005C5302006B5302000C
:1001000013B5031C0024021CC4600C3301CAA142B5
:1001100003D1FA24A400009402E089B20091211CCA
:10012000FFF7ACF916BD70B5CB6886B0051C0C1C8A
:100130000E1D01A80968042B0BD1FFF798FA281CA3
:10014000E36801A9321CFFF7E7FA01A8FFF791FA6B
:100150000AE0FFF7ADFB281CE36801A9321CFFF79A
:1001600013FC01A8FFF7A9FB281C06B070BD000016
:10017000F7B5051C0835041C0F1C281C07491E1C5C
:10018000019202F078FC019B27606360281C311CFF
:1001900002F085FC0023201CA361FEBD184F020065
:1001A000F7B5051C0835041C0F1C281C0A490192D0
:1001B0001E1C02F060FC019B311C63602760281C40
:1001C00002F06DFC742002F06DFD0899051CFFF72C
:1001D000C8FCA561201CFEBD184F0200F7B5051C28
:1001E0000835041C0F1C281C0B4901921E1C02F030
:1001F00042FC019B311C63602760281C02F04FFC0D
:10020000742002F04FFD0899051C099AFFF7FEFCC7
:10021000A561201CFEBDC046184F020038B5856997
:10022000041C002D05D0281CFFF7B7FC281C02F089
:100230004DFD201C083002F0D7FB201C38BD00000B
:100240007FB50E1C1549041C02F015FC00257268D0
:1002500095421CD2002D03D0201C114902F073FCE2
:100260003268535D0E2B03D8201C0E4902F06BFC44
:1002700033681022595D684602F032FC6946201C42
:1002800002F05AFC684602F0AFFB0135DFE7201CA4
:1002900002F070FC201C04B070BDC046184F020074
:1002A000175202001452020030B5134C85B0051CE1
:1002B0001249201C02F03FFA291C0831201C02F0D0
:1002C00076FA0F49201C02F036FA6846291CFFF71F
:1002D000B7FF6946201C02F06AFA684602F084FB08
:1002E000A869002804D1201C064902F056FA01E052
:1002F000FFF70AFD05B030BDA8220020A45302007C
:10030000AF530200B453020070B5031C8C331B784A
:10031000022B01D000231BE0002393421AD0051CBE
:100320005A352C781F2C17D8661C2E70CD5C0419FA
:100330003834A5700133F0E7051C7C352C781F2C70
:100340000AD8661C2E70CD5C04195834E570013350
:100350009342F1D1101C00E0181C70BD031C38330F
:1003600037301A780378D01A7047021C011C3732D4
:10037000383113780978994204D9591C1170C3187F
:10038000D87D01E0012040427047031C021C373336
:1003900038321B7812789A4202D9C018C07D01E029
:1003A000012040427047704710B5021C8C32127811
:1003B000031C041C022A0AD15A34227800201F2A66
:1003C00010D89B18501C38332070997009E07C3489
:1003D000227800201F2A05D89B18501C5833207003
:1003E000D970012010BD0000FA22920082600B4AF1
:1003F00000230832026064220261FF228275021C1F
:10040000373243601370537093702332137021326C
:10041000537013700132D16013747047E8530200B7
:10042000F7B5071C88373B68A022D2009958A02551
:10043000019100219950427D284BC132FF32ED05D8
:1004400092005351027D0126C132FF329200535176
:10045000027D331C93401A1CA123DB00EA50427D2D
:10046000311C9140E950041C042002F0FFF8A22343
:10047000DB00E958227DD140314201D1132523E030
:10048000EA58637DDA403242F8D0012020E0627DF4
:10049000012393401A1CA026114BF605F2500420AC
:1004A00002F0E4F8627D0121A1239140DB00F150CC
:1004B000042002F0DBF8A223DB00F258237DDA40AF
:1004C000131C01221342E0D1013D002DDFD1281C75
:1004D0003A680199A023DB00D150FEBD0D07000052
:1004E0000C05000038B5417D234AC131A023FF31FE
:1004F000DB058900CA50017D051CC131FF3189002F
:100500008835CA502B6800211A1CFC32D160116258
:10051000417DA122D2009950017D184A041C9950B6
:100520000269FA2A06D0C82149008A4204D0CC22A6
:10053000520403E0802200E0CD22D20410495A5038
:10054000A07DFF2809D102F0A1F8C0B2A075FF2854
:1005500003D10C480C4902F034F90021A07D0A1C9B
:1005600000F0D8FB2A68A0230521DB00D150201C15
:10057000FFF756FF012038BD0C0700000C050000F6
:1005800024050000A8220020C5530200F8B5071C6E
:1005900088373B68094EA025ED0000225A51041C03
:1005A0009A51052002F062F83B6801229A51052217
:1005B0005A51201CFFF796FFF8BDC046FC0F000003
:1005C000F0B585B0041C0191151C029301D10020E7
:1005D0008FE0061C8836807D012A08D1029A012A04
:1005E00005D132689C235B00D118143204E03268D4
:1005F0009C235B00D1181C3200F08CFB3368012275
:100600001A603D4F00220092261C883633681A1C5F
:10061000FC32D16800292ED1013F002FF4D10021F6
:100620000A1CA07D00F076FB3368344A02209958FA
:1006300001400CD09958084398501A1C0021FC32F4
:100640009160012159619368002BFCD0BFE79D5850
:10065000042635400BD0985806439E501A1CFC3295
:100660009160012159619368002BFCD0AFE7201CF9
:10067000FFF78CFFABE7002FD1D00021D160019AAA
:10068000013D01320392A322D2009B58019AEDB2A0
:100690001370009B0133DBB20093012D0BD1029B41
:1006A000012B0AD132689C235B00D118A07D143243
:1006B00000F030FB01E0002D0AD0142001F0D6FF3D
:1006C000231C88331B6801221A62039A01929BE75C
:1006D000029B012B07D131680B1CFC339A68002A5E
:1006E000FAD000229A600021A07D0A1C00F012FBC3
:1006F000009805B0F0BDC04610270000C4040000FB
:10070000F8B50425002A4DD0041C88340D782468DF
:100710004E1C254965500125A560244D211CFC3146
:100720000F6A002F27D1013D002DF7D1204B022564
:10073000E2582A400AD0E2581543E55000238B6066
:10074000012363618B68002BFCD010E0E658042580
:100750002E4209D0E0580543E55001238A606361C9
:100760008B68002BFCD004E0FFF710FF1AE0022595
:1007700018E0032516E0002DD8D0013A0027D2B2A8
:100780000F62BA4204D03178074F0136E151C5E714
:10079000012B01D0002505E08A6063618B68002B86
:1007A000FCD0F7E7281CF8BD1C050000102700004E
:1007B000C404000010B5052343750623041C03750B
:1007C000FFF790FE8C340123237010BD38B5041C54
:1007D000202A03D8002082420CD000E02022201CD6
:1007E00088300568B120C0002950211C201C173119
:1007F000FFF7E6FE231C3733002238341A702070CE
:1008000038BD08B5C9B2D2B20123FFF7DFFF08BD7A
:10081000031C8C3302221A70533B19705A30002388
:100820000370704738B5051C5A352A78041C0B1C18
:100830000420002A0DD0221C883211684F3A10780B
:10084000B122D2008850211C2A78201C3A31FFF7AF
:1008500057FF00232B708C340123237038BD08B55B
:100860000121FFF7DFFF08BD08B502480249FFF785
:10087000BBFD08BD142200200040004008B54068C0
:10088000FFF798FF08BD10B52421041C4068FFF74E
:10089000BFFF142001F0DCFE6068FFF7E0FF10BD31
:1008A00008B503681B689847C0B208BD08B503685F
:1008B000DB689847C0B208BDF7B5041C0191151C50
:1008C0001F1C0026AA1C60682421FFF79AFF00283D
:1008D00007D10120013601F0BBFEB6B2002F06D1D0
:1008E000F0E76068FFF7E2FFC207F2D503E0BE421F
:1008F000E8D9284819E06068FFF7D8FF002828D118
:100900006068FFF7D3FF002823D16068FFF7CEFFB0
:10091000FF281ED10BE0FFF7C9FF3618F6B2002EF4
:1009200017D16068FFF7C2FF381C00B2FEBD6068D7
:10093000FFF7BCFF061C6068FFF7B8FF8019C0B264
:10094000002806D1237A60680093FFF7AFFFD5280F
:1009500001D01148E9E76068FFF7A8FF009B013369
:10096000DBB28342F5D1023EF7B2AF4210D8009E0F
:10097000019D2A3EF6B2019A6068AB1ADBB2BB4217
:10098000C9D2FFF793FF86192870F6B20135F2E756
:100990000248CAE7FFFF0000FDFF0000FCFF000067
:1009A000034B416008330360002303727047C04665
:1009B0001054020030B585B0051C1849684606225F
:1009C00003F0FDFA0B24686824210722FFF719FFC2
:1009D000002808D1013C0120A4B201F039FE002C0E
:1009E000F1D1FE2016E06868FFF760FFC307F1D57C
:1009F00000246868FFF75AFF02ABE0540134062C6C
:100A0000F7D1181C6946221C03F0CAFA431E98410C
:100A10004042C0B240B205B030BDC04608540200EA
:100A2000F0B585B002930AAB1B78041C03930B78D6
:100A30000F1C0372242140680192FFF7E9FE002198
:100A40006068FFF72DFF00216068FFF729FFFF2195
:100A50006068FFF725FF039D019A01355519EDB236
:100A6000291C60686D42FFF71BFFE9B26068FFF761
:100A700017FF6068D421FFF713FF3E1CD425F31B3A
:100A8000019ADBB293420CD231786068FFF708FF1D
:100A9000002801D1FD2024E033780136ED18EDB2B5
:100AA000EDE7029E029A6068B31A039ADBB29342A2
:100AB00009D23178FFF7F4FE0028EBD03378013605
:100AC000ED18EDB2EEE76D42E9B2FFF7E9FE002165
:100AD0006068FFF7E5FE6068FFF7C1FE201CFFF7C6
:100AE00069FF40B205B0F0BD38B50A4CA12301251D
:100AF0000022DB006560A560E2500223D1229A400B
:100B0000A350C1229A40A3501120034901F04CFD8B
:100B1000256038BD00100140C125020008B5FFF76F
:100B2000E3FF08BD374A384BD358384A934253D075
:100B300025D8374A934247D00DD89D2212039342BD
:100B40005DD0344A93423CD09E22D202934254D18B
:100B50009620C00055E0304A934238D006D8E120B4
:100B6000EC228001920393424BD046E02B4A934201
:100B70002FD08022120493423FD1294841E0294AD4
:100B8000934231D00AD8284A934228D0274A934228
:100B900027D0274A934230D1E1201EE0254A9342D4
:100BA00025D005D88022D204934226D1224828E0BD
:100BB000224A93421ED08022520593421DD12048E2
:100BC0001FE0962040011CE09620800119E096204D
:100BD00000E0E120C00114E09620000211E0962020
:100BE00000E0E12040020CE0E120800209E0E12089
:100BF000C00206E0E120000303E0002001E09620AF
:100C000000017047002000402405000000509D00B6
:100C10000050270000B0130000A04E0000F0750047
:100C2000127A000000B0AF0300903A0100E0D70153
:100C300000F0EB0000705F0790D00300A4DFBE0E51
:100C400040420F00044B054AD050054B1A78012A48
:100C500001D102221A7070471C05000000200040DC
:100C6000A422002038B5074D281C01F037FE064CA1
:100C7000201C01F033FE291C221C044801F06EFEEA
:100C800038BDC046C42200200C230020A82200202A
:100C900008B5011C014801F085FE08BDA82200200E
:100CA00023DF704728DF704742DF704744DF70471B
:100CB00070B58901002815DAC0B20F230340083B44
:100CC000124A9B089B009B1803221040FF24C2007D
:100CD000DD69201C904085430C4094402A1C22432F
:100CE000DA6112E082080A4B03249200D2182040F5
:100CF000C023A0409B00FF24D558261C8640B54346
:100D00000C408440281C2043D05070BD00ED00E012
:100D100000E100E00D4B10B51B68041C002B06D051
:100D2000FFF7C4FF0120A040FFF7BEFF0DE0C300A6
:100D300007481B18A220C000195006495A50012329
:100D4000A3401C1C024A044BD45010BD5823002061
:100D500000F0014014050000040500000D4B10B523
:100D60001B68041C002B08D044B2201C0121FFF793
:100D700099FF201CFFF794FF0AE040B20121FFF722
:100D800097FF1F231C400123A3401C1C024B1C6027
:100D900010BDC0465823002000E100E0BFF34F8F94
:100DA000024A034BDA60BFF34F8FFEE70400FA05F7
:100DB00000ED00E062DF704763DF704767DF704778
:100DC0006ADF70476CDF70476FDF704773DF704713
:100DD00074DF704710DF704708B5FFF7DFFF08B515
:100DE000FFF7DCFF08B50748FFF7E6FF002801D052
:100DF000FFF7D4FF044B002B02D0012000E000BF1E
:100E000008BDC046CC2300200000000010B5041C23
:100E100000F096FF3148211C00F070FA208810384D
:100E20000A2859D801F060FF06204C32585858580B
:100E3000583B44002A4BA2881C1C1A80294B002BCB
:100E400002D0002000E000BF274B002B01D000E0C3
:100E500000BF264B002B3FD02488201CFFF7B8FF93
:100E6000201CFFF7B3FF37E0214B002B01D0FEF72A
:100E7000C5F901221A4B52421A8001F009F90028E3
:100E800001D0FFF78BFFFFF7ADFF25E0144B0021EA
:100E90001888184AFFF798FF00281DD0F1E7A079BD
:100EA000002819D10F4B002B16D000E000BF13E033
:100EB0000E4B002B10D00620205600E000BF0BE0A8
:100EC00020896289A1890C4BE4881C600B4B186057
:100ED0000B4B19600B4B1A6010BDC046F227002067
:100EE0000C200020000000000000000000000000B6
:100EF000FDF101006E23002014280020202800208E
:100F00001C280020EC27002008B5024B186001F0D7
:100F100011FB08BD5C23002008B5FFF73FFF08B5B3
:100F2000FFF73CFF00000000F0B5C34A0123136047
:100F30008022D205D360C1495360C3B00320FFF7BC
:100F400049FFBF4E31680B78002B00D13360BD4D97
:100F5000286803F06DF9BC4CBC4B2070186803F096
:100F600067F93368BA495A4253412278C0B20870CF
:100F70009B00142A01D91422227022780026B24242
:100F800001D0961CF6B20025A84201D0051DEDB295
:100F90000633F318EB18DBB21F2B12D91F3BDBB261
:100FA00000280AD0834205D90125281A1B18DBB274
:100FB0000D7002E0C01A08700023002A01D0D31A75
:100FC0002370A44B00229A56143201DA14221A70AC
:100FD00000229A56042A01DD04221A709E4B1A68D8
:100FE000132A01DC14221A601968A022920191428E
:100FF00000DD1A6009ADFF232B70984AFD236B704A
:10100000281C00236B60AA60AB7001F0F3F8002885
:1010100008D00123281CAB7001F0ECF8002801D0A7
:10102000FFF7BCFE0023009303208D4950228D4B17
:1010300000F018FD0028F3D101221023134305A866
:101040000370804B22781B68191C0393FFF7BAFECC
:10105000011EE5D1844E854D1022854F3260182344
:10106000844A07AC2B606423136038600822201C7C
:1010700002F0AEFF33687F4923802B68201C638019
:101080003B68A3800B68E380FFF79AFE0028C7D176
:10109000704C00202056FFF791FE0028C0D1764CFE
:1010A000201C00F051F90028BAD1744B1D68002DA6
:1010B00009D0734B281C1978724B1A68724B1B7835
:1010C000FFF778FE71E0714B1E78002E2BD06E4634
:1010D0000423B37568466E4B12AC6E4910224A3039
:1010E000238002F06CFF6C4B0E941B880CAF5BBA34
:1010F00063826A4B291C1B8838225BBAA382684B27
:1011000016361B78A37518AC4C233B80201C172384
:10111000BB8002F05DFF01222570A280A660E7621D
:10112000201C291C3CE06F460623FB75638806AD36
:101130002B80237826AC3822AB70311C201C02F0A7
:1011400047FF404917370B68311C1B78A7605A1EB0
:10115000934134AF01225B00A280381C38222370F7
:10116000A67002F035FF364B1968002903D0012321
:101170003B83FD6102E001222283E561344B1A7852
:10118000002A07D00FAB9A80304A002012681880DE
:10119000119231932F4B2993002900D0391C26A896
:1011A00000F01CFC002800D03AE73E4C1422201C22
:1011B000002102F00DFF284B18883B4B1A780023C2
:1011C0009A4207D12F4B1B685A425341023363287E
:1011D00000D86420002523706560257202F028FE87
:1011E000144B134A01F05CFE01F03AFE2F4B1E2215
:1011F0001A809A78208201200243E1210A400C21C2
:101200000A4320218A439A700722DA7010221A7149
:101210000521274A658201F0ABF9041EAC4200D0DB
:10122000FEE6FFF7DFFD201C43B0F0BDC046C04620
:10123000000000000000E43F58230020D90D020008
:10124000E023002008200020F02700202420002098
:10125000182800202020002004200020DF0D02009C
:101260007C2300200D0E02001428002020280020DE
:10127000EC2700201C280020F227002068230020F3
:10128000642300207823002065230020742300209D
:10129000021500000F200020E42300206C23002012
:1012A0000E200020CC2300201F2000206E230020D1
:1012B000090F0200C046C04608B500F085F9434258
:1012C0005841C0B208BD66DF7047A0DF7047A2DF9B
:1012D0007047A4DF7047A6DF704752DF704710B534
:1012E000041C02F03FFE002802D0303CE0B204E0D3
:1012F000201C02F0A5FF5738C0B210BD10B50B88F6
:10130000112B05D0502B07D0102B19D18B8801E061
:1013100001235B42C38313E0CB88C4899C4208D17C
:10132000084B002B0CD0081C2030C98BFDF768FF40
:1013300006E0C28A9A4203D188881321FFF7C3FFCF
:1013400010BDC04601F201000123F0B55B42C3832A
:101350009B4B91B01C68071C002C25D00F252378CF
:1013600000262D3B5A425341E4182078B04204D065
:10137000FFF7B5FF06010134F6B22078002804D04B
:10138000FFF7ADFF06430134F6B209A82E54013D24
:10139000E5D2437B027B1B0213437B80391CFFF7A2
:1013A0009CFF002804D006E101230370854B438095
:1013B0003B7802A98B707B883A1D01200B80FFF7D8
:1013C00084FF041E00D0F7E0211C0322684602F0CF
:1013D000FFFD0122102313436A46137001221023DC
:1013E00013436A465370937806229343022209AD51
:1013F00013436A469370211C1C22281C02F0E8FD4E
:101400002B7802221343102213432B7000AB6B6125
:101410003B786A466C60EC602C61AC6193737B88AE
:10142000211C0133938101A8032202F0D1FD012286
:10143000102313436A4613710023537193790622D4
:101440009343022213430822934310229343012221
:1014500004AE13436A469371211C1422301C02F01F
:10146000B7FD03AB049301AA142372603481748125
:10147000B3813461B888BB1D291C321CFFF727FFDC
:10148000041E00D098E0211C1C22281C02F0A0FDA4
:101490002B7808221343042213432B703B786A46AF
:1014A0006C60EC602C616C61AC6193737B88211C77
:1014B0000233938101A8032202F08AFD6A460023C9
:1014C000137153790F229343012213430F221340C8
:1014D000102213436A4653719379062293430222E2
:1014E00013430822934310229343012293436A46F5
:1014F0009371211C1422301C02F06AFD03AB04938B
:1015000001AA1423726034817481B38134613B1C5D
:10151000B888291C321C0E33FFF7D9FE041E4BD1AC
:10152000211C1C22281C02F053FD2B780822134397
:10153000042213432B703B786A4693736C60EC6013
:101540002C616C61AC617B88211C0333938101A801
:10155000032202F03DFD6A460023137153790F22E6
:101560009343012213430F221340102213436A4670
:101570005371937906229343022213430822934323
:1015800010229343012293436A469371211C142233
:10159000301C02F01DFD03AB336001AA0123726011
:1015A000B3813481748134613B1CB8881633291CA3
:1015B000321CFFF78CFE041C201C11B0F0BDC0468D
:1015C000E023002020220000F0B587B06F460637E8
:1015D00000903980142901D914233B80114E002139
:1015E000F0883A1C009BFFF774FE051E16D1F28BA3
:1015F0000D4B9A4212D002AC291C1022201C02F082
:10160000E7FCF388A58023800123A370009BA760DB
:10161000E360F08B211CFFF75EFE051C281C07B061
:10162000F0BDC046F2270020FFFF000062DF7047D8
:1016300069DF70476DDF704754DF7047F0B587B0E2
:101640000C9F061C387800240391029200930190AD
:10165000251C33889D4238DA7268A900511805A804
:10166000042202F0ACFC694605A813310022FFF702
:10167000E3FF002832D16846C37C02998B4220D117
:10168000624262413B78520059188A181F2A1ADCBC
:10169000002C06D19A1C3A7001330398009ADBB2F1
:1016A000D05400996C463A7813348A1805A8211C46
:1016B000FFF7C2FF002811D13A7823780124D3180C
:1016C0003B700135C5E70C2008E00020844205D0BE
:1016D0003B78019A013B00999B1A8B5407B0F0BDEF
:1016E000F7B5089E171C00960222051C1C1CFFF76C
:1016F000A5FF002806D10096281C391C1022231CA7
:10170000FFF79CFFFEBD0000F0B5002313700378C7
:1017100087B0061C0D1C141C002B03D1B378002BC2
:1017200041D021E06F4616371D23881C391C3B80B1
:10173000FFF780FF002800D047E173780921002BD4
:1017400004D03A889A4201D93B8008212278531C60
:1017500023703B78581CA8542278501C2070A95440
:1017600022789B182370D9E723780C201B2B00DDEF
:101770002BE16F461637381CFFF75AFF002800D0C0
:1017800023E1237839885A1C22700322EA542378F3
:101790005A1C22701922EA542378EA181170023375
:1017A000090A51702370B288002A1ED0B16800293E
:1017B00000D109E123780C20991C8A181F2A00DD2A
:1017C00003E15A1C2270B2880132EA5423785A1C71
:1017D00022700122EA542078B2882818B16802F0F9
:1017E000EEFBB2882378D3182370F368002B12D055
:1017F0001A7823780C201C2B00DDE6E0591C2170A0
:101800000221E9542378591C21700A21E9542378D4
:10181000591C2170EA54338A002B03D1338B002BDF
:1018200016D00AE0301C00941030022106222B1C36
:10183000FFF756FF0028F1D0C7E0301C00941830A5
:10184000032107222B1CFFF74BFF002800D0BCE030
:10185000338C002B0AD0301C009420301421152228
:101860002B1CFFF73DFF002800D0AEE0B36A002B31
:1018700041D022780C20029206321F2A00D9A4E01F
:1018800019880720052900D89FE0514A8F18514A2E
:10189000BFB2974200D898E05A88052A00D894E051
:1018A0004B4FBF18BFB2BC464A4FBC4500D88CE076
:1018B000494FB94204D0BA4202D0914200D984E0E3
:1018C000029A02990132227005226A542278511C30
:1018D00021701221A95422781888A9180870000ACA
:1018E0004870901CC0B2207059882B1819700432AF
:1018F000090A59702270F76A002F28D03A792378A4
:10190000911C981CC9B241180C201F295DDC591C80
:1019100003322170EA5423785A1C2270FF22EA54C1
:1019200023783988EA1802331170DBB2090A517042
:101930002370BA88002A0AD0B9680720002944D049
:10194000E81802F03CFBBA882378D3182370371CC0
:10195000343703973B780020834236D0316B814285
:1019600032D00290039F3B78029FBB422AD9029A51
:101970000C275743336BDF193A7923780332591C0C
:101980002170EA5423785A1C22701622EA542078D7
:101990003A882B1802301A70C0B2120A5A7020709E
:1019A000BA88002A09D0B96800290DD0281802F099
:1019B00006FBBA882378D3182370029B0133DBB26D
:1019C0000293CFE7002000E0072007B0F0BDC0463B
:1019D0007FF3FFFF7DF30000FFFF0000F0B593B041
:1019E0006D466E460023063507360C1C2B7033708F
:1019F00098420BD08388002B01D1072024E0836814
:101A0000002BFAD01B785A07F7D516E0071C002CDC
:101A100003D0A388002BF0D106E0221C297833786C
:101A2000381CFFF703FE0FE0321C201C0AA9FFF749
:101A30006BFE0AAA0028F1D006E002A92A1CFFF7D3
:101A400063FE02AF0028E2D013B0F0BD50DF704754
:101A500023DF704710DF704708B5081C111CFFF723
:101A60005EFA08BD38B5041C07208D0713D1002984
:101A700011D0094801600949201C0A80084A094917
:101A80001360094B049A1A60FFF7E4FF002802D1A3
:101A90001620FFF7DDFF38BDF4230020F0230020DF
:101AA000EC230020591A0200E823002013B50B4B49
:101AB0000B4C69461B88063120680B80FFF7C6FF78
:101AC00005280AD0002803D05F21064AFFF724FA30
:101AD000054B20681B689847E9E713BDF0230020F9
:101AE000F423002028540200EC23002008B5074B03
:101AF0001B68002B07D09847002806D07121044AA4
:101B0000FFF70AFA01E0FFF7D1FF08BDE823002044
:101B10002854020071DF7047A9DF7047AADF7047C1
:101B2000F0B5164A164C1278164F9446164A002302
:101B300023703B701E32191C181C60451ADA141CE5
:101B40001E3C657A6E0708D5104E2468CD00AC5552
:101B5000013175196A60C9B209E00D4E2468DD00D3
:101B6000AC55141C7519243401336C60DBB20130A0
:101B70006832E2E7024A39701370F0BDCC270020CA
:101B8000CD270020342400208C2400204C24002069
:101B9000FC23002070B50D4A01235B4213600C4BFF
:101BA000151C1C780023A3420EDA6822111C59432D
:101BB000084E7118CE8F864204D1281C02F0FFF91E
:101BC000002002E00133EEE7052070BD642700200D
:101BD000CC2700208C24002008B5064B00215A6E2B
:101BE0008A4201D0191C5031034B92B21888FFF77A
:101BF00093FF08BD64270020F8230020F8B5802358
:101C00005B05071C1869502180B201F077F81B4E64
:101C100083B2357804209D422ED2194C002D08D075
:101C20002068391C0430132200F061FC002823D105
:101C30000EE0291C281C2A1C00F036FC114B211C2C
:101C40001880114B187800F06DFC0028E8D013E0E4
:101C50000C4D4C21381C2A1C00F026FC0B49288016
:101C60000143206800F03EFC002805D12368503372
:101C70002360337801333370F8BDC046FA23002067
:101C80003C2400208A240020402400200000DE455F
:101C9000F8B580235B05071C1869502180B201F05C
:101CA0002DF81B4E83B2357804209D422ED2194C5C
:101CB000002D08D02068391C0430072200F017FCE2
:101CC000002823D10EE0291C281C2A1C00F0ECFB64
:101CD000114B211C1880114B587800F023FC002870
:101CE000E8D013E00C4D1C21381C2A1C00F0DCFB52
:101CF0000B4928800143206800F0F4FB002805D13F
:101D0000236820332360337801333370F8BDC04635
:101D10008824002084240020362400204024002031
:101D20000000DE4510B5054C207800F0F1FB0028DE
:101D300002D1607800F0ECFB10BDC04640240020CA
:101D4000BA4BF7B51B78071C002B03D1B84B082002
:101D50009B6898473B88172B64D005D8102B09D077
:101D6000142B00D130E18DE1182B00D170E1522B02
:101D70004DD087E1BA88AF4CAF4B201C1A800123AD
:101D80005B424230B91D0722236002F018F900239C
:101D900063667B7BDD07ED0FEDB2002D0DD05B0898
:101DA000062B04D8A54ADB00D156062916DDA04B28
:101DB00003209B68984718E00135A14B1B789D4292
:101DC00013DAA04EEF00F3195868211C013043319B
:101DD000062202F0E5F80028EED1B95768225143F7
:101DE000994B201C591802F0EAF82168013100D102
:101DF00048E1FFF7F1FE8E4D002801D0AA68904718
:101E00006B68002B00D13DE101A80122D8E0894B8D
:101E10001B68013317D1884B002118880A1CFFF773
:101E20007BFE56E0BE79BD1D002E00D02AE1814C1C
:101E30002368013353D1E888FFF7ACFE002802D0B5
:101E4000052803D045E0FFF7C7FE42E07F4A177838
:101E5000062F01D904203FE0291C3222201D02F068
:101E6000AEF8EB886822E38727607B1C57437749ED
:101E700075480B70C019211C666602F0A0F8FFF7C8
:101E80004FFE6D4B311C1888321CFFF745FE0028B1
:101E900022D1201CFFF7B2FE04280CD1644B5A68F3
:101EA000002AD7D0216801AB18705970E18F181C37
:101EB0005980904701E000280BD15D4B5B68002BF7
:101EC00000D1DFE001A80022027022684270E28F98
:101ED000D6E0002800D1D5E0554B9B68D1E0A28820
:101EE000FB889A4201D0002046E0A1793A7A072384
:101EF00019401A409142F6D1E279797A1A400B40A2
:101F00009A42F0D1217ABA7A1F2319401A4091429D
:101F1000E9D1627AF97A1A400B409A42E3D1628998
:101F2000BB899A420CD1227FBB7F9A4208D1201CE8
:101F3000391C0C3052080E3102F032F8464246414C
:101F4000F307D0D5201C391C1E302031102202F09E
:101F500027F80028C7D1231C2E331A783B1C3033B6
:101F60001B789A4208D1201C391C2F3031310622AF
:101F700002F016F843425841C10700D582E0291CFF
:101F80003222201D02F01BF8EB88201CE387FFF7AC
:101F900035FE274D04280AD16A68002A09D0216835
:101FA00001AB18705970E18F181C598002E00028AD
:101FB00001D0AA6890476B68002B63D001A8032268
:101FC00021680270417082E71A4C0C22201CB91D56
:101FD000363001F0F4FFE08FFFF7DCFD021E0DD17B
:101FE000154B211C18880A31FFF794FD002802D0F8
:101FF0000F4B9B689847FFF7EFFD11E0052811D1C3
:102000000D4C002120880A1CFFF784FD002802D017
:10201000074B9B689847002120880A1CFFF77CFD2E
:10202000021E2FD0024B101C9B682AE0382400208F
:102030004024002064270020F82300204C240020A6
:10204000CD270020FC2300208C240020CC2700205A
:10205000BB791A07120F1B09012A02D1012B04D8E0
:1020600010E0022A0ED1002B0CD0074B5B68002B2E
:1020700008D001A802220270044A11684170D28F70
:1020800042809847F7BDC0464024002064270020C6
:102090004E4BF7B51A780823002A00D194E04C4D36
:1020A0006C462B680634013320D014232380494B1F
:1020B000291C18885031221CFFF730FD031E00D068
:1020C00082E0238828686B66E8640323002800DA2E
:1020D0007AE0414A1278904276DA682250433F4BC8
:1020E000291C181801F06BFFFFF71AFD0020011CD6
:1020F000021C00F0D9F900272080374E33789F4228
:102100000ADA68207843354B4C211818221C00F05D
:10211000CBF901372080F0E7314B22881B889A42A7
:1021200007D10020011C021C00F0BEF9002720800E
:1021300015E02C4B187800F0EBF9031E44D12A4B24
:10214000071C187033789F42EBDA68207843234BE2
:102150001818FFF753FD002835D10137F2E733781F
:102160009F420BDA68237B431C481C214C30C0186B
:10217000221C00F099F901372080F0E71B4B2288E0
:102180001B889A4208D10123124A5B4213802B60BC
:10219000EB6400236B6617E0124B587800F0B8F937
:1021A000031E11D1124B041C187033789C42EADADA
:1021B0006823634309484C30C018FFF769FD0028C5
:1021C00001D10134F1E7031C181CFEBD38240020A6
:1021D00064270020F8230020CC2700208C24002036
:1021E0008A24002040240020FA23002036240020E6
:1021F00088240020F0B5031C806897B0002800D127
:10220000ECE0802252051169764A89B20C20914295
:1022100000D8E4E0744C221C23CB23C2734D002170
:102220006822281C01F0D4FE714A01235B427149E7
:1022300013802B6000230B706F4A704913700B7072
:10224000A378002B03D16C4C002323703DE0FFF7F3
:1022500069FD0028F7D0C2E0664D694C2A78002A53
:1022600038D02168674B0E68320C12049A423FD175
:1022700004314C2203A801F0A2FE634F03A84C21B5
:102280003A1C00F011F9B6B23880B04275D12B7803
:1022900001332B702368584D503323602E78039CF4
:1022A000B4426ADC68256543584B03A95D19281CB4
:1022B0004C2201F084FEB44207D1012300225B428C
:1022C0006A66EB644C4D01342C704B4C2378062B22
:1022D000C2D912E0111C101C00F0E6F842494A4B2A
:1022E00018800878211C00F01DF90028B9D002E000
:1022F000013642D101E0052869D1002617E03B787C
:102300003D4A01333B702368127820332360039BDE
:10231000934232DC682253433C4A0136D318019A77
:102320004C3323CA23C331CA31C312681A60324BFB
:102330001B789E4237DA314F354C3A78002A1ED04E
:102340002368304A1D68290C00950904914224D164
:1023500003AD01952A1C043323CB23C223CB23C214
:102360002C4D1B681C21136003A82A1C00F09CF84C
:10237000009928808DB2A842C1D00B202FE0111CFB
:10238000101C00F091F8234B174D18806878211C21
:1023900000F0C8F80028D3D003E0009C0134ECD151
:1023A00001E0052813D1144C6823227817495343C0
:1023B000CB18062A08DC0121494200201960586622
:1023C000D96401326833F4E7FFF7AAFB01E0002883
:1023D00005D1114B01221A70002000E0072017B030
:1023E000F0BDC0462F0200004024002064270020DA
:1023F000F8230020FA230020CC2700208824002086
:102400003C2400200000DE458A2400208C2400208B
:102410008424002036240020382400203DDF70472B
:102420000E4B0F4A022130B599508021C9005D58EA
:102430000C1C002DF9D0A121084DC9006850185975
:1024400006490028FBD088580224A04388508022E7
:10245000D2009A58002AFAD030BDC04600E00140B0
:102460000405000038B5041C0D1C0C4B1B78002B18
:1024700002D0FFF7D3FFF8E7094A0A4B0121995030
:10248000111C8022D20098580028FAD005482560F7
:102490000024445099580029FCD038BDCE27002094
:1024A0000405000000E0014030B5041C002A01D002
:1024B000108800E00A48231C1A1B92B28A420ED2EE
:1024C00042BA1D7892B26A40D0B20009424010036D
:1024D000424092B2D0B2400150400133ECE730BDEF
:1024E000FFFF000008B5FFF7BDFF002008BDF8B5ED
:1024F000061C0F1C151C0024A300E2B2F018AA420F
:1025000004D2F958FFF7AEFF0134F5E70020F8BD1B
:1025100008B580235B051B699BB25843FFF780FF1A
:10252000002008BD80235B051B699BB258430860EF
:1025300000207047014B18707047C046CE2700201E
:1025400023DF704727DF704728DF704749DF704778
:1025500008B5054B01201A7850401870034B1B68D2
:10256000002B00D0984708BDD4270020D02700209A
:1025700038B50C4B051C15200C1C1A60FFF7E2FF48
:1025800000280ED11520291CFFF7DEFF002808D1F6
:102590001520FFF7D5FF002803D10320211CFFF7EA
:1025A000D5FF38BDD027002008B5034B82001B683B
:1025B000D150FEF7D3FB08BD28200020000000000A
:1025C00030B50F4DAB68002B10D00E4C0B4B0A4AA8
:1025D0002068616812184B4122606360206861685E
:1025E000CBB2021C226063600023AB6000236B64EB
:1025F00030BDC046C046C0460000000100000000DB
:10260000FC100140D82700200B4B0C4A1868596871
:102610000B4B10B5D4580023221C80185941054B90
:10262000034A00F0F9FB4B04C00B1843C90B10BD63
:10263000E803000000000000D8270020001001403F
:1026400004050000C046C04608B5FFF7DDFF08BD21
:1026500038B5041CFFF7F8FF051CFFF7F5FF401B1A
:10266000A04202D200F093FAF7E738BD01380BD34D
:10267000C046C046C046C046C046C046C046C0462A
:10268000C046C046C046F1E7704700000F4B10B58A
:102690001A680323511E8A41524213400C4A1168A2
:1026A0001022002900D00822A0210A4CC900645839
:1026B000012199400C4201D1834204D1013393425C
:1026C000F2DBFF2000E0181C10BDC0466023002094
:1026D0005423002000F0014008B5FEF71FFAFCF774
:1026E00059FDFCF769FDFCE7F8B5061C0C1C8F18BA
:1026F0000025BC4207D0336821781B68301C9847FE
:1027000001342D18F5E7281CF8BD08B50368C9B2D7
:102710001B68984708BD70B5051C0C1E09D00368DE
:10272000081C5E6801F084FD211C021C281CB047B7
:1027300000E0081C70BD08B5FFF7EDFF08BDF7B558
:102740000024061C0D1C271CAB689C420ED233686B
:10275000211C1B68281C019300F002FA019B011C3C
:10276000301C984701343F18A4B2EDE7381CFEBD79
:1027700008B5FFF7D0FF08BD08B503681B68984788
:1027800008BD38B50D21041CFFF7F6FF0A21051C12
:10279000201CFFF7F1FF401938BD38B5041CFFF7C6
:1027A000BAFF051C201CFFF7ECFF281838BD38B510
:1027B000041CFFF7C4FF051C201CFFF7E2FF4019B3
:1027C00038BD38B5041CFFF7A6FF051C201CFFF719
:1027D000D8FF281838BDF0B58BB0151C09AB002206
:1027E000071C0E1C1A70012D00D80A256C462334D4
:1027F000301C291C00F082FA031C6B43F61AF6B257
:10280000211C092E01D8303600E03736F6B226708A
:10281000013C002801D0061CEAE7381CFFF77BFFCB
:102820000BB0F0BDF8B5041C0D1C161E04D10368D6
:10283000C9B21B68984712E00A2A0DD100290ADAAA
:102840002D21FFF799FF6942071C321C201CFFF75E
:10285000C2FFC01903E000E0D2B2FFF7BCFFF8BD31
:1028600008B5FFF7DFFF08BD38B5041CFFF7DAFF36
:10287000051C201CFFF785FF281838BD08B5002A65
:1028800002D1FFF742FF02E0D2B2FFF7A4FF08BD7A
:1028900008B5FFF7F3FF08BD38B5041CFFF7EEFFDE
:1028A000051C201CFFF76DFF281838BD08B5FFF781
:1028B000E5FF08BD38B5041CFFF7E0FF051C201C30
:1028C000FFF75FFF281838BD38B5041CFFF7D6FFA7
:1028D000051C201CFFF755FF401938BD10B500211D
:1028E0004022041C01F074FB00232364201C636459
:1028F00010BD036C3F2201331340426C934202D05F
:10290000026C815403647047012070470369186C9E
:102910005B6C4030C01A3F23184070470369196C44
:102920005A6C914202D05A6C985C01E001204042FE
:1029300070470369196C5A6C914207D05A6C3F2159
:10294000985C5A6C01320A405A6401E0012040420E
:102950007047037E002BFCD17047000000234360CA
:10296000FA239B008360034B0161083303604261DB
:102970007047C0467054020008B54369196C5A6C20
:10298000914202D1002303760AE0012202765A6CBA
:102990003F21985C5A6C01320A405A64FEF752F9A2
:1029A00008BD000038B50E4B041C1B78002B15D059
:1029B0004069036C0B4D0133426C2B4004D540251C
:1029C000013B6D422B4301339342F2D0FFF791FF5D
:1029D000237E002B02D1201CFFF7CEFF012038BD43
:1029E000A42200203F00008010B5041C006801F004
:1029F000CDFA201C10BD10B5041C0068002801D0C1
:102A000001F0C4FA00232360A360636010BD38B5F1
:102A1000041C0D1C0068013101F098FB002801D056
:102A200021C4012038BD036810B5041C002B02D05E
:102A300043688B4209D2201CFFF7E9FF002805D02C
:102A4000A368002B01D122681370012010BD70B55E
:102A50000E1C111C041C151CFFF7E5FF002803D1F8
:102A6000201CFFF7C8FF04E0A5602068311C01F0BE
:102A7000D7FB201C70BD38B50023041C0D1C03605F
:102A8000436083600373994207D0081C01F0D0FBB8
:102A9000291C021C201CFFF7DAFF201C38BD10B5D2
:102AA0000B1C041E8C4208D00968002903D09A68C8
:102AB000FFF7CDFF01E0FFF79EFF201C10BD38B5EA
:102AC000041C0D1E08D0081C01F0B2FB291C021CBE
:102AD000201CFFF7BCFF01E0FFF78DFF201C38BD75
:102AE00010B5002386B0041C036043608360037349
:102AF000081C01A900F080F8201C01A9FFF7DFFFE6
:102B0000201C06B010BDF8B5041C0F1C866801D14E
:102B100000250FE00125002A0CD09619311CFFF783
:102B200082FF0028F4D02268A368391CD01801F075
:102B300077FBA660281CF8BD08B50B1C9A680968CD
:102B4000FFF7E1FF08BD38B5051C0C1C081E06D0B8
:102B500001F06EFB211C021C281CFFF7D4FF38BDBE
:102B6000031C9A680020914203D21B68834200D064
:102B7000585C704710B50468002C07D020780028F6
:102B800004D001F069FB20700134F7E710BD7047F5
:102B9000F0B58DB0061C0D1C019228D0131C023B11
:102BA000222B26D803AC0094002E12D0301C0199A1
:102BB00000F0E8F8301C0F1C019900F09FF8631C2E
:102BC000061C092F01DC303700E0573727701C1C2A
:102BD000EAE7009A9442E9D02B1C009A944204D967
:102BE000013C22781A700133F7E700221A70281C82
:102BF00000E000200DB0F0BD08B5FFF7C9FF08BD2B
:102C000008B5044B5A68044BD205520DD358984767
:102C100008BDC04600ED00E02C200020FEE70000CB
:102C20001048114910B5884201D0002301E00F4B34
:102C300007E00F4CCA18A242F9D2C45804331460FA
:102C4000F7E70C4A191D043B934203D200221A6095
:102C50000B1CF6E701F060F900F00EF8FFF73CFD01
:102C6000FEE7C046A45602000020002058210020A4
:102C70005421002028280020064B1B681B061B0F30
:102C8000012B06D1044A054B1A608022044B120224
:102C90001A607047E80F00F0DFFF07C0040500402E
:102CA000186C004010B5041E02D1012400E09847C2
:102CB000201C01F061F9002805D1034B1B68002B93
:102CC000F5D101F011F910BDE027002008B500286A
:102CD00001D001F05BF908BD08B5031C081C191CE4
:102CE00001F00AF908BD000002B471464908490024
:102CF000095C49008E4402BC7047C046002934D0AC
:102D00000123002210B488422CD301242407A142BD
:102D100004D2814202D209011B01F8E7E400A1427A
:102D200004D2814202D249005B00F8E7884201D315
:102D3000401A1A434C08A04202D3001B5C082243ED
:102D40008C08A04202D3001B9C082243CC08A0425E
:102D500002D3001BDC082243002803D01B0901D04A
:102D60000909E3E7101C10BC7047002801D00020BF
:102D7000C04307B4024802A14018029003BDC046F8
:102D8000190000000029F0D003B5FFF7B9FF0EBC11
:102D90004243891A1847C0467047C0468446101CF3
:102DA00062468C46191C634600E0C0461FB500F021
:102DB00063FC002801D40021C8421FBD10B500F0FB
:102DC00093FB4042013010BD10B500F055FC0028C7
:102DD00001DB002010BD012010BDC04610B500F081
:102DE0004BFC002801DD002010BD012010BDC046B5
:102DF00010B500F0C3FB002801DC002010BD01204D
:102E000010BDC04610B500F0B9FB002801DA002063
:102E100010BD012010BDC0469C460304F0B51B0C3C
:102E200017043F0C150C1E1C041C000C7E436B4346
:102E300047434543FB18300C1818874202D98023BA
:102E40005B02ED18030CED1863465C434A433604FD
:102E5000360CA118000480194919F0BD00000000CB
:102E600038B50E4B0C4A041C0D1CFFF7CBFF002895
:102E700004D1201C291C00F0A7FF38BD074B064ACF
:102E8000201C291C00F076FC00F09EFF80231B060E
:102E9000C018F2E7C046C046000000000000E04154
:102EA000F0B5564644465F464D46F0B41F1C0B0332
:102EB0001B0B98464B0087B0041C81465B0DC80F66
:102EC000161C9A460090002B51D06A4B9A4531D07F
:102ED0008022414652030A43630FD2001A43664BD5
:102EE00090460025E20091469A44002402953B0357
:102EF0001B0B9B46FD0F7B00311C5B0D019560D0C9
:102F00005C4A934254D08021584649030143720FD2
:102F1000C9001143584A8B469B18F1000020009AC3
:102F200004436A4003920F2C00D9ADE0534EA40035
:102F30003459A746404604436ED100210225082497
:102F4000884689460295D2E7009C0298C3464946C6
:102F50000194022864D0032800D1ABE2012800D0FC
:102F600038E2019A002402400025A14660E0434671
:102F700023434AD04046002800D1C0E100F096FF2C
:102F8000031E272B00DDB3E128210D1A211C083B6D
:102F90004246E9409A400D1C1543221C9A40A8461F
:102FA0009146374B00251B1A9A46002402959EE74E
:102FB0005A4616430320002EB1D1B3460021022009
:102FC000ADE75A4632431BD05B46002B00D18AE165
:102FD000584600F06BFF272800DD7DE12822171AF4
:102FE000011C321C08395B46FA408B40171C1F43FA
:102FF000331C8B40BB46191C214B1B1A00208EE74B
:103000000027BB460021012089E700200125042478
:103010008046814602956AE703250C24029566E7FF
:10302000019C0394039D01222A400024114DA146D6
:10303000002000212403260B0C0D2405114B3443E2
:103040002D0523402B435B005B08D207191C484623
:10305000114307B03CBC90469946A246AB46F0BD32
:103060000022802424039146024DE1E7002400253C
:10307000A146DDE7FF07000001FCFFFF98540200B6
:103080000DFCFFFFFFFF0F805546ED1A0495D84554
:1030900000D953E100D14EE1049C0025013C4E468D
:1030A00004944746A946584603020C0E1C430902E5
:1030B000250C23041B0C0091381C291C0193FFF7DD
:1030C0001DFE019983464143381C8A46291CFFF79F
:1030D00059FE330C090419438A450CD95B4609197A
:1030E000013B8C4200D947E18A4500D844E10222E5
:1030F0005242934409195346CB1A181C291C98466E
:10310000FFF7FCFD071C0198291C784382464046C6
:10311000FFF738FE36040B04360C33439A4509D9C1
:103120001B197A1E9C4200D924E19A4500D821E15E
:10313000023F1B195E4632041743380CBB46009E03
:10314000009F51463F0C32045B1A5946BA46120C96
:103150000F043F0C904651467A434F43414641434A
:1031600056467043CF19160CBE19B14202D98027BA
:103170007F02C019310C12043604120C4018B61824
:10318000834200D2C4E000D1BEE0191A4846861B33
:10319000B145BF417F42CF1BA74200D113E1291C9B
:1031A000381CFFF7ABFD019902904143381C89465A
:1031B000291CFFF7E7FD330C0904194389450CD995
:1031C000029B0919013B8C4200D9FFE0894500D8D8
:1031D000FCE0029F0919023F02974F46CF1B381CA3
:1031E000291C0597FFF78AFD071C0198291C7843C5
:1031F00081460598FFF7C6FD36040904360C0E43D8
:10320000B14509D936197B1EB44200D9E0E0B14579
:1032100000D8DDE0023F3619029D4946761A29049E
:1032200039430B0457460A0C1B0C4046454658438D
:1032300055437B437A43EB18070CDB199D4202D9B7
:1032400080256D0252191D0C00041B04000C52193C
:103250001B18964235D300D1FCE001231943049E8C
:10326000994FF519002D00DCA1E0480709D00F2384
:103270000B40042B05D00B1D8B42894149428B44E6
:10328000191C5A46D20107D5904B5C46049E8027F4
:103290001C40FF00A346F5198D4B9D427ADD039C2F
:1032A0000122224000248B4DA146C1E68024240344
:1032B000474627424CD13C432403240B009A854DBA
:1032C000B6E63619481EB4425ED9011C9642C4D1F6
:1032D000009E9E42C1D1C2E7031C283B311C99408D
:1032E0008B46002188E6301C00F0E0FD203072E6BD
:1032F000283B211C994000228846914651E6201C1B
:1033000000F0D4FD20303BE60021B14500D33DE77D
:10331000009F5A46B944B945BF417F423F19FB1847
:10332000013A9C421ED2984200D97EE000D1B5E01D
:10333000191A93462AE7894500D8ADE6484646461D
:1033400042467708D3074608C0071E438146AAE6CF
:103350005846204212D1044324032A1C240B8946D8
:103360005C4D65E6A342E3D1009F4F45DBD9211AAE
:1033700093460BE7171CDDE69B46BCE63C43240363
:10338000240B009A534D53E6B24259D800D18AE03B
:10339000011C62E75F46C9087B07039E0B437C0262
:1033A0006D0501229946240B6D0D324040E64A4BD3
:1033B000049FDB1B382B10DD039C012222400024DC
:1033C0000025A14634E60121494248E7029304E77B
:1033D0001F1C21E7019C039441E71F2B40DC3F4861
:1033E000049F0C1C3A1858469140DC409040204302
:1033F0000A1C511E8A41011C11435A46DA40131C13
:10340000480709D00F220A40042A05D00A1D8A4223
:10341000894149425B18111C1A0234D5039C0122D0
:10342000224000240125A14602E6009F02214942D4
:10343000B9448B44B945894149420919CB18A4E6DE
:10344000009D881E6900A942AD416D422C193619B4
:1034500000913AE7002B00D033E70024009437E7CF
:103460001F4A049C5D46121BD5402A1C202B1FD0EE
:103470001C4E5F46A3199F403B1C19434B1E9941AC
:1034800011430023BCE75A07C9080A43039F91462A
:103490005B0201221C0B3A400025C9E54E45C4D809
:1034A0009346002172E6009F9F42C9D3011C0FE79B
:1034B0000023E2E7802424035F463C432403240BDB
:1034C000019A8946034DB3E5FF030000FFFFFFFEAD
:1034D000FE070000FF07000002FCFFFF1E040000C3
:1034E000E2FBFFFF3E040000F0B55F4656464D4646
:1034F0004446F0B40D1C041C8046E80F81461803B6
:103500000F03000B3F0B83B084461B480097490014
:103510005E00DF0F490D9246760DBB4681420CD00E
:103520001548864210D00120B14215D003B03CBCF2
:1035300090469946A246AB46F0BD009F0120274326
:10354000F4D10D488642EED1604602430120002AA4
:10355000ECD10120B142E9D1009B6345E6D1D045D1
:10356000E4D1D94506D00029E0D11C43201C441EDB
:10357000A041DBE70020D9E7FF070000F0B55F4678
:1035800056464D464446F0B4CD0FDE0FAC461D0303
:103590002D0BB146374E0F034C00AB465D00804605
:1035A0003F0B640D92466D0DB44232D0314EB542A0
:1035B00035D0002C0ED1384341424141081C002D2A
:1035C0000BD0002919D1CC452DD065466842012386
:1035D000184318E0002DF6D1281C59460A435342DF
:1035E0005341002806D1002BEDD0634658420123F9
:1035F000184308E00020002B05D14A4650425041B4
:103600004042012318433CBC90469946A246AB4633
:10361000F0BD3E1C0643C9D002204042F3E75E469F
:103620001643C6D0F8E7AC4207DC0BDA61464842E5
:103630004841404201231843E5E7664670420123B2
:103640001843E0E75F450AD80ED000205F45DAD284
:10365000654668426841404201231843D3E7624609
:10366000504201231843CEE7D045F8D80020D0457A
:10367000EED3C8E7FF070000F0B556464D46444676
:103680005F46F0B40D1C83B0041C0190E80F814626
:1036900018030F03000B3F0B844635480097490081
:1036A0005E00DF0F490D9246760DB846814234D058
:1036B0002F48864236D0002918D0002E1FD1341C46
:1036C00067463A4353425341002C1FD00020002B41
:1036D00005D142465042504140420123184303B0B5
:1036E0003CBC90469946A246AB46F0BD00980443C8
:1036F00060426041041C002EE2D00028E9D1C1459F
:1037000015D04F46784201231843E8E7002BF6D046
:103710004B46584201231843E1E7009F022027430C
:10372000DDD1C5E7674602201743D8D1C3E7B142D0
:1037300004DD4A46504201231843D0E7B14207DB7B
:1037400000986045E4D80AD0009F00206745C6D2A3
:103750004F4678427841404201231843BFE7019A1F
:103760005245D5D8019A00205245F1D3B7E7C0465B
:10377000FF070000F8B55F46564644464D46F0B494
:103780000C034D00CF0F610A440F2143C4001803FE
:10379000DE0F8046B44646465800760A530F334340
:1037A000D600C94A6D0DBA46400DB346904200D1CD
:1037B000EBE06246012672409446674500D1A1E0E5
:1037C0002F1A002F00DC08E100283BD1584618438F
:1037D00000D0E8E0600709D00F232340042B05D078
:1037E000231DA342A441644209191C1C0A0200D4EF
:1037F00079E0B54B6A1C9A4200D109E1B34BE40869
:1038000019404807044349025205012750460B0B53
:10381000520D0740002000211B03201C1C0B0B0D28
:103820001B05AB4D2343520552081D4015436D0047
:103830006D08FF07291C39433CBC90469946A246B7
:10384000AB46F8BDA0488542C4D0802000040343A5
:10385000382F00DDF0E01F2F00DD24E12020C01B09
:103860001A1C5E468240FE40324394465A468240CD
:10387000101C421E9041FB40624602431F1CA21ACC
:103880009442A4416442C91B091B141C0A02A1D51D
:1038900049024F0A002F00D1C9E0381C00F006FB96
:1038A000021C083A1F2A00DDBCE02821231C091A4B
:1038B0009740CB401F439440954200DDAEE0551B3E
:1038C000691C1F2900DDDDE01F22551B3B1C221C4B
:1038D000AB40CA40AC40651EAC411343CF401C43D3
:1038E000391C002576E74807E4086A050127564693
:1038F000C908520D37400443734B9D4249D0090318
:103900000B0B87E72A1A9446002A00DC9BE000286C
:1039100055D06D48854200D15CE780200004034308
:103920006046382800DD09E11F2800DD50E16246CD
:103930002020801A1E1C8640B1465E46D6404A466C
:1039400032435E4686409046301C421E90414246BD
:1039500002436046C3401219A242A441644259186E
:103960000919141C080200D434E7574B01359D4255
:1039700000D142E1554B60081940012323401C1C33
:103980000443CB071C43490824E71E4300D014E737
:103990000FE70B1C234300D1CFE180231B030B4314
:1039A0001B031B0B36E7013F002F66D15E46A21BAF
:1039B0009442A4416442C91A091B141C66E7584684
:1039C000184300D106E701267642B4446046002839
:1039D00000D0CAE05E463219BEE7002F7AD1681CDB
:1039E0004005400D012800DCE3E05A46A21A94424B
:1039F000BF41C81A7F42C71B3E0200D492E058461E
:103A0000041BA3459241591A52428F1AE24641E7DC
:103A1000534601271F4000240023FBE62B49AD1A23
:103A20003940D7E6271C28388740002444E7201C6B
:103A300000F03CFA203033E75A461A43531E9A41AD
:103A4000D2B200271BE7002A00D0E1E0681C46053F
:103A5000760D012E00DC91E01B4DA84200D1F7E06D
:103A60005E463219A242A441644259180919CC0792
:103A7000520814434908051CACE61348854200D09F
:103A8000E6E6A7E62B1C1F3B3E1CDE40331C20292C
:103A900070D03F22551BAF403C43601E84411C4305
:103AA0000021002596E6381C20381E1CC640301C1C
:103AB000202F61D04022D71BBB405A461A43531EC9
:103AC0009A4102430027DAE6FF070000FFFF7FFF6D
:103AD000FFFF0F80002D38D0B94DA84200D192E0F1
:103AE00080252D047F422943382F00DDAAE01F2FB7
:103AF00000DD2CE12025ED1B0E1CAE40B046261C3F
:103B0000FE404246AC401643651EAC413443F9408A
:103B10005A46141BA34592415B1A5242991A051C3E
:103B2000E246B3E6131C3B43141C002B00D0B1E665
:103B300000270022002500210024DDE65A461A4312
:103B4000531E9A41D2B2002305E70D1C25435AD0DB
:103B5000FF43002F53D15A46141BA3459241591AD3
:103B60005242891A051CE24690E69548854200D0EB
:103B7000D6E62FE600278FE700239EE7081C2043A8
:103B8000002D00D0C3E0002800D1F6E058461843CD
:103B900000D11FE658460219A242A44164425918B6
:103BA0000919141C0A0200D414E6864B0125194099
:103BB00010E6081C2043002D3AD1002800D089E0EF
:103BC0005946194300D1BFE0191C5C46E24601E6A4
:103BD000604620381A1CC2406646101C202E00D1B8
:103BE000B0E04022921B93405A461A43531E9A411A
:103BF00002430023AFE6724D00272A1C9BE7704D5D
:103C0000A84200D070E7191C5C46051CE246E1E5BD
:103C1000002D20D10D1C254375D0D543002D6FD12B
:103C20005C445C459241591852428918051C99E63A
:103C3000002835D159461943DDD0191C5C46E246AF
:103C40005F4DC7E50C43611E8C41E4B200215FE784
:103C5000051C021C6FE75A4DA84254D055428022E1
:103C600016043143382D00DD81E01F2D00DD91E089
:103C70002022561B0A1CB446B240261CEE4032439A
:103C8000904662469440661EB44142461443E94061
:103C90005C445C459241CB1852429918051C61E680
:103CA000584618434CD04807E40804438020C9080C
:103CB0000003014208D0DD08054205D15946CA0873
:103CC0005C071443291CE246630FC9001943E40052
:103CD0003B4D7FE55846184300D17BE55E46A71B68
:103CE000BC429241C81A5242801A06024CD558462C
:103CF000041BA3459241591A5242891AE24669E5CA
:103D00002F4A9042AED1191C5C46051C62E5002882
:103D100036D05846184313D080254807E408C90810
:103D20002D0304432942CFD0D8082842CCD15D4688
:103D3000EA085C071443011CC6E70023002469E578
:103D40001F4D47E500234FE700270022F3E63D1C07
:103D5000203D0E1CEE40351C202F2DD04026F71B99
:103D6000B9400C43611E8C412C430021D0E60C432A
:103D7000611E8C41E4B200218AE7191C5C4629E5EA
:103D8000191C5C460E4D25E5031C3B43DCD0011C91
:103D90003C1C1FE52026764276190A1CF24090460C
:103DA000202D0BD04026751BA9400C43611E8C4171
:103DB00045462C4300216BE70021D2E70021F4E7C0
:103DC000FF070000FFFF7FFF70B50B1C124C0903BB
:103DD0000E0B5900021C490DDD0F0020A14211DD20
:103DE0000E4881420FDC8020400306430C48401AF5
:103DF0001F280BDD0B4A521AD640321C5042002DB0
:103E000000D1101C70BD084BE818FBE7074BC240FF
:103E1000C9188E403243F1E7FE0300001D04000084
:103E20003304000013040000FFFFFF7FEDFBFFFFE2
:103E3000F8B5041E31D0C70F00D04442201C00F05A
:103E400035F8184D2D1A0A2819DD0B388440240343
:103E50006D05240B6D0D3A1C0026002000210B0D72
:103E60002403240B1B0523430F4C2D051C402C431E
:103E700064006408D307211C301C1943F8BD061CDC
:103E80001536231CB3401E1C0B23181AC4402403F0
:103E90006D05240B6D0D3A1CDFE700220025002480
:103EA0000026DAE71E040000FFFF0F801C2101231B
:103EB0001B04984201D3000C10391B0A984201D30D
:103EC000000A08391B09984201D30009043902A2EB
:103ED000105C40187047C046040302020101010152
:103EE000000000000000000008B5062000F078F98E
:103EF0000120FBF743F9000038B5051C05480C1CF0
:103F0000131C002804D00220291C221C00E000BF42
:103F100038BDC0460000000070B50E4B0E4D0024A9
:103F2000ED1AAD101E1CAC4204D0A300F358984704
:103F30000134F8E701F09EFB084B094D0024ED1A0F
:103F4000AD101E1CAC4204D0A300F35898470134B6
:103F5000F8E770BD805602008056020080560200CD
:103F600094560200034B1B6818184078042318402D
:103F70007047C0465021002008B5034B011C18684B
:103F800000F076F808BDC0464C21002008B5034B70
:103F9000011C186800F024F808BDC0464C21002020
:103FA00030B50023934208D0C55C0133CC18013CE6
:103FB0002478A542F6D0281B00E0002030BD10B5C3
:103FC0000023934203D0CC5CC4540133F9E710BD05
:103FD000031C8218934202D019700133FAE770472C
:103FE00030B5002940D004390B68002B00DAC9181D
:103FF0001E4A1368141C002B02D14B60116033E081
:1040000099420FD208680A189A4205D1136852687B
:10401000C01808604A6000E04B60216024E08A42DA
:1040200003D8131C5A68002AF9D11D685C198C4208
:104030000BD10968691858181960904214D1146896
:104040005268091919605A600EE08C4202D90C239B
:10405000036009E008680C18944203D114685268A0
:10406000001908604A60596030BDC046E82700204A
:1040700070B50323CD1C9D430835061C0C2D01D2C1
:104080000C2501E0002D3FDB8D423DD3204B1C6809
:104090001A1C211C002913D00868431B0DD40B2BBC
:1040A00002D90B60CC181EE08C4202D16368136009
:1040B0001AE0486860600C1C16E00C1C4968E9E7CF
:1040C000144C2068002803D1301C00F04BF820600D
:1040D000301C291C00F046F8431C15D0C41C0323D7
:1040E0009C4384420AD12560201C0B300722231DEB
:1040F0009043C31A0BD05A42E25008E0211A301CF8
:1041000000F030F80130EED10C233360002070BD98
:10411000E8270020E42700200FB40B4B13B51C68E0
:10412000002C05D0A369002B02D1201C00F042FD19
:1041300005ABA168201C049A019300F0C1F816BCDD
:1041400008BC04B01847C0464C21002008B50A1C22
:104150000349031C0868191C00F0F7FD08BDC046A0
:104160004C21002038B5074C0023051C081C236097
:10417000FAF7D6FF431C03D12368002B00D02B6035
:1041800038BDC0462428002038B5041C0D1E1F2D44
:1041900004D916230360012040421FE0436C002B2A
:1041A00004D08A009A181368002B08D1201C00F054
:1041B00033F82A1C011C201C00F01CF80EE0012B17
:1041C0000BD0591C03D116230360012006E0002404
:1041D000281C14609847201C00E0002038BD000017
:1041E00008B5034B011C1868FFF7CEFF08BDC04699
:1041F0004C21002038B5074C0023051C081C111C5D
:104200002360FAF7C3FF431C03D12368002B00D0BF
:104210002B6038BD2428002008B5FAF7B8FF08BD88
:10422000031C0A7801311A700133002AF9D1704752
:104230000023C25C0133002AFBD1581E70470000E6
:10424000044B1B681B185A7803231340012B00D121
:104250002030704750210020044B1B681B185A78EF
:1042600003231340022B00D1203870475021002037
:10427000936810B5013B9360002B05DA9469A34263
:1042800008DBCBB20A2B05D01368581C10601970DC
:10429000C8B201E000F0A6FA10BDF8B5061C0F1C6C
:1042A000141CD518AC4208D02178301C3A1CFFF7FA
:1042B000DFFF0134431CF5D100E00020F8BD000011
:1042C000F0B59FB0061C0F1C03920593002804D084
:1042D0008169002901D100F06DFC754B9F4201D12D
:1042E000776808E0734B9F4201D1B76803E0724BD7
:1042F0009F4200D1F768BB891A070AD53B69002B9A
:1043000007D006AD00236B6120236B763023AB769C
:104310003BE0301C391C00F0D1FA0028F1D001201C
:104320004042C2E0059A111D12680591002A76DB11
:104330000992013423782E2B00D181E021785F4847
:10434000032200F0F7FC002807D05C492A68431AD2
:10435000402098401043286001342178631C58485D
:1043600006220393297600F0E5FC002800D18AE0BC
:10437000544B002B7ED1059B072207339343083310
:1043800005936A69049953186B61039C2378002B89
:1043900004D10399611A029110D003E0252BF8D0C3
:1043A0000134F3E7301C391C039A029BFFF775FFB9
:1043B000013075D06A69029953186B612378002B1C
:1043C0006ED0012252426A606A4600235B32013499
:1043D0002B60EB60AB601370AB6521783A48052227
:1043E00000F0A8FC002808D0374A0134831A0120C5
:1043F00098402B6818432860EFE72B68D90603D54F
:104400006A4620215B3211701A0703D56A462B21B8
:104410005B32117022782A2A84D0099B05E052422F
:10442000EA60022213432B6083E72278303A092A9C
:1044300004D80A214B4301349B18F6E7099379E726
:1044400063782A2B09D1059B02341A1D1B6805923B
:10445000002B0DDA01235B420AE0013400232278AD
:10446000303A092A04D80A214B4301349B18F6E755
:10447000079363E705AB0093301C291C3A1C134BD0
:1044800000E000BF07E005AB0093301C291C3A1C7C
:104490000E4B00F091F804900499013100D070E7C0
:1044A000BB895A0600D53AE70B981FB0F0BDC0464D
:1044B000145602003456020054560200E65402001C
:1044C000EA54020000000000E05402009B42020097
:1044D000F7B5151C01930A698B68061C0C1C9342E6
:1044E00000DA131C221C2B6043321278002A01D000
:1044F00001332B602068800602D52B6802332B60C5
:10450000216806270F401FD0231C43331B785A1EF7
:104510009341226892061FD5E11840313020C870BF
:10452000211C5A1C45310978A21840320233D1703F
:1045300012E0221C301C019919320123089FB84750
:10454000013011D0009F01370097E0682968009F73
:10455000431A9F42EDDBD7E7221C301C01994332FE
:10456000089FB847013002D10120404223E0206873
:1045700006212B68E26801400025042903D1D51AE1
:10458000EB43DB171D40A26823699A4201DDD31A71
:10459000ED1800270097009FAF420BDA221C301C59
:1045A00001991A320123089FB8470130DCD0009FDF
:1045B0000137EFE70020FEBDF0B50D1C8BB0433591
:1045C00006920590079304950B7E0C1C109A6E2B97
:1045D00000D1A7E011D8632B22D009D8002B00D13D
:1045E000B0E0582B00D0C0E045310B707B4D4EE061
:1045F000642B1CD0692B1AD0B7E0732B00D1A5E037
:1046000009D86F2B29D0702B00D0AEE00E68202384
:1046100033430B6036E0752B1FD0782B32D0A4E0EB
:1046200013680D1C191D423511601B689FE021683D
:1046300013680E0603D5191D11601E6805E04806B3
:10464000F9D5191D116000215E5E644B002E3BDA26
:10465000049D2D2276422A7036E0216813680E06EA
:1046600003D5191D11601E6804E04806F9D5191D0F
:104670001E881160594B227E039308276F2A1ED093
:104680000A271CE0231C78214533554D1970116809
:104690002368081D039510601E0601D50E6802E010
:1046A0005806FBD50E88D90702D520221343236074
:1046B0001027002E03D1226820239A432260231C56
:1046C000002243331A7001E003930A276368A36052
:1046D000002B03DB2568042295432560002E02D1C0
:1046E000049D002B0ED0049D301C391CFEF74AFBA4
:1046F0000398013D435C301C2B70391CFEF7FEFA19
:10470000061EF1D1082F09D12168C90706D56268B4
:1047100023699A4202DC013D30232B70049E731BF7
:1047200023612AE0086813684969050604D5181D45
:1047300010601B68196005E04606F8D5181D10606A
:104740001B68198000232361049D16E01368191D5E
:1047500011601D68281CFFF76BFD6368206198429B
:1047600000D923612069606004E0251C42352B706C
:1047700001232361049E00233370079E0598009651
:10478000211C09AA069BFFF7A3FE013002D10120DC
:10479000404221E02A1C059806992369079DA847F5
:1047A0000130F4D02668B60705D4099BE06898422A
:1047B00012DA181C10E00025E0680999431A9D429E
:1047C000F3DA221C0598069919320123079EB04797
:1047D0000130DCD00135EFE70BB0F0BDF154020041
:1047E0000255020070B5051C0E1C141C002804D0D4
:1047F0008269002A01D100F0DDF9234B9C4201D1EE
:104800006C6808E0214B9C4201D1AC6803E0204B6E
:104810009C4200D1EC68A369A360A3891A070AD55A
:104820002369002B07D022682369F6B2D01A626987
:1048300090420FDB08E0281C211C00F03FF8002804
:10484000F1D0012040421DE0281C211C00F032F96B
:104850000028F6D1A3680130013BA36023685A1CED
:1048600022601E706369984205D0A389301CDA0764
:1048700008D50A2E06D1281C211C00F01BF900289F
:10488000DFD1301C70BDC046145602003456020001
:104890005456020038B5084C051C00202060081C46
:1048A000111C1A1CFAF75AFC431C03D12368002B75
:1048B00000D02B6038BDC04624280020344B70B592
:1048C0001D68061C0C1C002D05D0A969002902D109
:1048D000281C00F06FF92F4B9C4201D16C6808E056
:1048E0002D4B9C4201D1AC6803E02C4B9C4200D183
:1048F000EC68A28993B2190721D4D90605D40923FB
:10490000336040231A43A2813FE05A0713D5616BFD
:10491000002908D0231C4433994202D0301CFFF7F1
:104920005FFB00236363A38924229343A3810023B5
:10493000636023692360A38908221343A38121694B
:1049400000290BD1A389A02292001A4080239B004A
:104950009A4203D0301C211C00F09CF9A38901224B
:104960001A4005D061690022A2604A42A26103E0B8
:10497000990700D46269A26022690020824206D1B0
:10498000190604D540221343A3810120404270BD83
:104990004C210020145602003456020054560200E6
:1049A000F7B58B89051C0C1C19075ED46268002AB8
:1049B00002DC276C002F1ADDE76A002F17D00022D7
:1049C0002E682A60802252011A4001D0626D15E0E3
:1049D000281C216A0123B847021C411C0ED12B68F8
:1049E000002B0BD01D2B01D0162B02D12E600020E6
:1049F0005EE0A38940210B43A38159E0A3895F07AF
:104A000006D56168636B521A002B01D0276CD21B4C
:104A1000281C216A0023E76AB847A289411C06D1F5
:104A20002B68002B03D01D2B01D0162B19D100238E
:104A3000636023692360D70405D5411C02D12A682D
:104A4000002A00D16065616B2E600029CFD0231C45
:104A50004433994202D0281CFFF7C2FA0020606359
:104A600026E040231A43A28122E02669002EBED010
:104A700027680022BF1B01972660990700D1626951
:104A8000A260019F002FB2DD281C216A321C019B0D
:104A9000A76AB847002806DCA389402213430120F7
:104AA000A381404204E0019F36183F1A0197E8E7CE
:104AB000FEBD00000A6938B5051C0C1C002A01D196
:104AC00000201CE0002804D08369002B01D100F0F5
